{
    "contractName": "SupplyChain",
    "abi": [
        {
            "inputs": [
                {
                    "internalType": "uint256",
                    "name": "_manufacturerId",
                    "type": "uint256"
                },
                {
                    "internalType": "uint256",
                    "name": "_productSerial",
                    "type": "uint256"
                },
                {
                    "internalType": "string",
                    "name": "_productName",
                    "type": "string"
                },
                {
                    "internalType": "string",
                    "name": "_productBrand",
                    "type": "string"
                },
                {
                    "internalType": "uint256",
                    "name": "_productPrice",
                    "type": "uint256"
                }
            ],
            "name": "addProduct",
            "outputs": [],
            "stateMutability": "nonpayable",
            "type": "function"
        },
        {
            "inputs": [
                {
                    "internalType": "string",
                    "name": "_sellerName",
                    "type": "string"
                },
                {
                    "internalType": "string",
                    "name": "_sellerBrand",
                    "type": "string"
                },
                {
                    "internalType": "uint256",
                    "name": "_sellerCode",
                    "type": "uint256"
                },
                {
                    "internalType": "uint256",
                    "name": "_phoneNumber",
                    "type": "uint256"
                },
                {
                    "internalType": "uint256",
                    "name": "_manufacturerId",
                    "type": "uint256"
                },
                {
                    "internalType": "string",
                    "name": "_sellerAddress",
                    "type": "string"
                }
            ],
            "name": "addSeller",
            "outputs": [],
            "stateMutability": "nonpayable",
            "type": "function"
        },
        {
            "inputs": [],
            "name": "productCount",
            "outputs": [
                {
                    "internalType": "uint256",
                    "name": "",
                    "type": "uint256"
                }
            ],
            "stateMutability": "view",
            "type": "function"
        },
        {
            "inputs": [
                {
                    "internalType": "uint256",
                    "name": "",
                    "type": "uint256"
                }
            ],
            "name": "products",
            "outputs": [
                {
                    "internalType": "uint256",
                    "name": "manufacturerId",
                    "type": "uint256"
                },
                {
                    "internalType": "uint256",
                    "name": "productSerial",
                    "type": "uint256"
                },
                {
                    "internalType": "string",
                    "name": "productName",
                    "type": "string"
                },
                {
                    "internalType": "string",
                    "name": "productBrand",
                    "type": "string"
                },
                {
                    "internalType": "uint256",
                    "name": "productPrice",
                    "type": "uint256"
                },
                {
                    "internalType": "bool",
                    "name": "isVerified",
                    "type": "bool"
                }
            ],
            "stateMutability": "view",
            "type": "function"
        },
        {
            "inputs": [
                {
                    "internalType": "uint256",
                    "name": "_productSerial",
                    "type": "uint256"
                },
                {
                    "internalType": "uint256",
                    "name": "_consumerCode",
                    "type": "uint256"
                }
            ],
            "name": "sellToConsumer",
            "outputs": [],
            "stateMutability": "nonpayable",
            "type": "function"
        },
        {
            "inputs": [],
            "name": "sellerCount",
            "outputs": [
                {
                    "internalType": "uint256",
                    "name": "",
                    "type": "uint256"
                }
            ],
            "stateMutability": "view",
            "type": "function"
        },
        {
            "inputs": [
                {
                    "internalType": "uint256",
                    "name": "",
                    "type": "uint256"
                }
            ],
            "name": "sellers",
            "outputs": [
                {
                    "internalType": "string",
                    "name": "sellerName",
                    "type": "string"
                },
                {
                    "internalType": "string",
                    "name": "sellerBrand",
                    "type": "string"
                },
                {
                    "internalType": "uint256",
                    "name": "sellerCode",
                    "type": "uint256"
                },
                {
                    "internalType": "uint256",
                    "name": "phoneNumber",
                    "type": "uint256"
                },
                {
                    "internalType": "uint256",
                    "name": "manufacturerId",
                    "type": "uint256"
                },
                {
                    "internalType": "string",
                    "name": "sellerAddress",
                    "type": "string"
                }
            ],
            "stateMutability": "view",
            "type": "function"
        },
        {
            "inputs": [],
            "name": "transactionCount",
            "outputs": [
                {
                    "internalType": "uint256",
                    "name": "",
                    "type": "uint256"
                }
            ],
            "stateMutability": "view",
            "type": "function"
        },
        {
            "inputs": [
                {
                    "internalType": "uint256",
                    "name": "",
                    "type": "uint256"
                }
            ],
            "name": "transactions",
            "outputs": [
                {
                    "internalType": "uint256",
                    "name": "productSerial",
                    "type": "uint256"
                },
                {
                    "internalType": "uint256",
                    "name": "consumerCode",
                    "type": "uint256"
                },
                {
                    "internalType": "bool",
                    "name": "isSold",
                    "type": "bool"
                }
            ],
            "stateMutability": "view",
            "type": "function"
        },
        {
            "inputs": [
                {
                    "internalType": "uint256",
                    "name": "_productSerial",
                    "type": "uint256"
                },
                {
                    "internalType": "uint256",
                    "name": "_consumerCode",
                    "type": "uint256"
                }
            ],
            "name": "verifyProduct",
            "outputs": [
                {
                    "internalType": "string",
                    "name": "",
                    "type": "string"
                }
            ],
            "stateMutability": "view",
            "type": "function"
        }
    ],
    "bytecode": "0x608060405234801561001057600080fd5b5061132e806100206000396000f3fe608060405234801561001057600080fd5b506004361061009e5760003560e01c80639ace38c2116100665780639ace38c21461015e578063b77bf60014610190578063ba5d1d6c146101ae578063cee26ed5146101ca578063e0f6ef87146101ff5761009e565b80631bf174b4146100a357806358ee3367146100d357806359fa9b1f146100ef578063744a71c21461010d5780637acc0b2014610129575b600080fd5b6100bd60048036038101906100b89190610982565b61021d565b6040516100ca9190610a52565b60405180910390f35b6100ed60048036038101906100e89190610ba9565b610306565b005b6100f76103d4565b6040516101049190610c6b565b60405180910390f35b61012760048036038101906101229190610982565b6103da565b005b610143600480360381019061013e9190610c86565b610505565b60405161015596959493929190610cce565b60405180910390f35b61017860048036038101906101739190610c86565b61065e565b60405161018793929190610d3d565b60405180910390f35b610198610695565b6040516101a59190610c6b565b60405180910390f35b6101c860048036038101906101c39190610d74565b61069b565b005b6101e460048036038101906101df9190610c86565b61075e565b6040516101f696959493929190610e55565b60405180910390f35b610207610932565b6040516102149190610c6b565b60405180910390f35b606060008203610262576040517f08c379a000000000000000000000000000000000000000000000000000000000815260040161025990610f17565b60405180910390fd5b60008084815260200190815260200160002060050160009054906101000a900460ff16156102c7576040518060400160405280600f81526020017f50726f64756374206973207265616c00000000000000000000000000000000008152509050610300565b6040518060400160405280600f81526020017f50726f647563742069732066616b65000000000000000000000000000000000081525090505b92915050565b6040518060c0016040528086815260200185815260200184815260200183815260200182815260200160001515815250600080868152602001908152602001600020600082015181600001556020820151816001015560408201518160020190816103719190611143565b5060608201518160030190816103879190611143565b506080820151816004015560a08201518160050160006101000a81548160ff021916908315150217905550905050600360008154809291906103c890611244565b91905055505050505050565b60045481565b60008083815260200190815260200160002060050160009054906101000a900460ff1661043c576040517f08c379a0000000000000000000000000000000000000000000000000000000008152600401610433906112d8565b60405180910390fd5b6000810361047f576040517f08c379a000000000000000000000000000000000000000000000000000000000815260040161047690610f17565b60405180910390fd5b604051806060016040528083815260200182815260200160011515815250600260006005548152602001908152602001600020600082015181600001556020820151816001015560408201518160020160006101000a81548160ff021916908315150217905550905050600560008154809291906104fc90611244565b91905055505050565b600060205280600052604060002060009150905080600001549080600101549080600201805461053490610f66565b80601f016020809104026020016040519081016040528092919081815260200182805461056090610f66565b80156105ad5780601f10610582576101008083540402835291602001916105ad565b820191906000526020600020905b81548152906001019060200180831161059057829003601f168201915b5050505050908060030180546105c290610f66565b80601f01602080910402602001604051908101604052809291908181526020018280546105ee90610f66565b801561063b5780601f106106105761010080835404028352916020019161063b565b820191906000526020600020905b81548152906001019060200180831161061e57829003601f168201915b5050505050908060040154908060050160009054906101000a900460ff16905086565b60026020528060005260406000206000915090508060000154908060010154908060020160009054906101000a900460ff16905083565b60055481565b6040518060c00160405280878152602001868152602001858152602001848152602001838152602001828152506001600086815260200190815260200160002060008201518160000190816106f09190611143565b5060208201518160010190816107069190611143565b5060408201518160020155606082015181600301556080820151816004015560a082015181600501908161073a9190611143565b509050506004600081548092919061075190611244565b9190505550505050505050565b600160205280600052604060002060009150905080600001805461078190610f66565b80601f01602080910402602001604051908101604052809291908181526020018280546107ad90610f66565b80156107fa5780601f106107cf576101008083540402835291602001916107fa565b820191906000526020600020905b8154815290600101906020018083116107dd57829003601f168201915b50505050509080600101805461080f90610f66565b80601f016020809104026020016040519081016040528092919081815260200182805461083b90610f66565b80156108885780601f1061085d57610100808354040283529160200191610888565b820191906000526020600020905b81548152906001019060200180831161086b57829003601f168201915b5050505050908060020154908060030154908060040154908060050180546108af90610f66565b80601f01602080910402602001604051908101604052809291908181526020018280546108db90610f66565b80156109285780601f106108fd57610100808354040283529160200191610928565b820191906000526020600020905b81548152906001019060200180831161090b57829003601f168201915b5050505050905086565b60035481565b6000604051905090565b600080fd5b600080fd5b6000819050919050565b61095f8161094c565b811461096a57600080fd5b50565b60008135905061097c81610956565b92915050565b6000806040838503121561099957610998610942565b5b60006109a78582860161096d565b92505060206109b88582860161096d565b9150509250929050565b600081519050919050565b600082825260208201905092915050565b60005b838110156109fc5780820151818401526020810190506109e1565b60008484015250505050565b6000601f19601f8301169050919050565b6000610a24826109c2565b610a2e81856109cd565b9350610a3e8185602086016109de565b610a4781610a08565b840191505092915050565b60006020820190508181036000830152610a6c8184610a19565b905092915050565b600080fd5b600080fd5b7f4e487b7100000000000000000000000000000000000000000000000000000000600052604160045260246000fd5b610ab682610a08565b810181811067ffffffffffffffff82111715610ad557610ad4610a7e565b5b80604052505050565b6000610ae8610938565b9050610af48282610aad565b919050565b600067ffffffffffffffff821115610b1457610b13610a7e565b5b610b1d82610a08565b9050602081019050919050565b82818337600083830152505050565b6000610b4c610b4784610af9565b610ade565b905082815260208101848484011115610b6857610b67610a79565b5b610b73848285610b2a565b509392505050565b600082601f830112610b9057610b8f610a74565b5b8135610ba0848260208601610b39565b91505092915050565b600080600080600060a08688031215610bc557610bc4610942565b5b6000610bd38882890161096d565b9550506020610be48882890161096d565b945050604086013567ffffffffffffffff811115610c0557610c04610947565b5b610c1188828901610b7b565b935050606086013567ffffffffffffffff811115610c3257610c31610947565b5b610c3e88828901610b7b565b9250506080610c4f8882890161096d565b9150509295509295909350565b610c658161094c565b82525050565b6000602082019050610c806000830184610c5c565b92915050565b600060208284031215610c9c57610c9b610942565b5b6000610caa8482850161096d565b91505092915050565b60008115159050919050565b610cc881610cb3565b82525050565b600060c082019050610ce36000830189610c5c565b610cf06020830188610c5c565b8181036040830152610d028187610a19565b90508181036060830152610d168186610a19565b9050610d256080830185610c5c565b610d3260a0830184610cbf565b979650505050505050565b6000606082019050610d526000830186610c5c565b610d5f6020830185610c5c565b610d6c6040830184610cbf565b949350505050565b60008060008060008060c08789031215610d9157610d90610942565b5b600087013567ffffffffffffffff811115610daf57610dae610947565b5b610dbb89828a01610b7b565b965050602087013567ffffffffffffffff811115610ddc57610ddb610947565b5b610de889828a01610b7b565b9550506040610df989828a0161096d565b9450506060610e0a89828a0161096d565b9350506080610e1b89828a0161096d565b92505060a087013567ffffffffffffffff811115610e3c57610e3b610947565b5b610e4889828a01610b7b565b9150509295509295509295565b600060c0820190508181036000830152610e6f8189610a19565b90508181036020830152610e838188610a19565b9050610e926040830187610c5c565b610e9f6060830186610c5c565b610eac6080830185610c5c565b81810360a0830152610ebe8184610a19565b9050979650505050505050565b7f496e76616c696420636f6e73756d657220636f64650000000000000000000000600082015250565b6000610f016015836109cd565b9150610f0c82610ecb565b602082019050919050565b60006020820190508181036000830152610f3081610ef4565b9050919050565b7f4e487b7100000000000000000000000000000000000000000000000000000000600052602260045260246000fd5b60006002820490506001821680610f7e57607f821691505b602082108103610f9157610f90610f37565b5b50919050565b60008190508160005260206000209050919050565b60006020601f8301049050919050565b600082821b905092915050565b600060088302610ff97fffffffffffffffffffffffffffffffffffffffffffffffffffffffffffffffff82610fbc565b6110038683610fbc565b95508019841693508086168417925050509392505050565b6000819050919050565b600061104061103b6110368461094c565b61101b565b61094c565b9050919050565b6000819050919050565b61105a83611025565b61106e61106682611047565b848454610fc9565b825550505050565b600090565b611083611076565b61108e818484611051565b505050565b5b818110156110b2576110a760008261107b565b600181019050611094565b5050565b601f8211156110f7576110c881610f97565b6110d184610fac565b810160208510156110e0578190505b6110f46110ec85610fac565b830182611093565b50505b505050565b600082821c905092915050565b600061111a600019846008026110fc565b1980831691505092915050565b60006111338383611109565b9150826002028217905092915050565b61114c826109c2565b67ffffffffffffffff81111561116557611164610a7e565b5b61116f8254610f66565b61117a8282856110b6565b600060209050601f8311600181146111ad576000841561119b578287015190505b6111a58582611127565b86555061120d565b601f1984166111bb86610f97565b60005b828110156111e3578489015182556001820191506020850194506020810190506111be565b8683101561120057848901516111fc601f891682611109565b8355505b6001600288020188555050505b505050505050565b7f4e487b7100000000000000000000000000000000000000000000000000000000600052601160045260246000fd5b600061124f8261094c565b91507fffffffffffffffffffffffffffffffffffffffffffffffffffffffffffffffff820361128157611280611215565b5b600182019050919050565b7f50726f64756374206e6f74207665726966696564000000000000000000000000600082015250565b60006112c26014836109cd565b91506112cd8261128c565b602082019050919050565b600060208201905081810360008301526112f1816112b5565b905091905056fea26469706673582212209cbef054a44510501c226c55d7a8c92db2da1d65bd1df59b699a76ffab0b82ca64736f6c63430008120033",
    "immutableReferences": {},
    "source": "// SPDX-License-Identifier: MIT\r\npragma solidity ^0.8.18;\r\n\r\n\r\ncontract SupplyChain {\r\n    \r\n    struct Product {\r\n        uint manufacturerId;\r\n        uint productSerial;\r\n        string productName;\r\n        string productBrand;\r\n        uint productPrice;\r\n        bool isVerified;\r\n    }\r\n    \r\n    struct Seller {\r\n        string sellerName;\r\n        string sellerBrand;\r\n        uint sellerCode;\r\n        uint phoneNumber;\r\n        uint manufacturerId;\r\n        string sellerAddress;\r\n    }\r\n    \r\n    struct Transaction {\r\n        uint productSerial;\r\n        uint consumerCode;\r\n        bool isSold;\r\n    }\r\n\r\n    mapping(uint => Product) public products;\r\n    mapping(uint => Seller) public sellers;\r\n    mapping(uint => Transaction) public transactions;\r\n\r\n    uint public productCount;\r\n    uint public sellerCount;\r\n    uint public transactionCount;\r\n\r\n    // Add product by manufacturer\r\n    function addProduct(\r\n        uint _manufacturerId,\r\n        uint _productSerial,\r\n        string memory _productName,\r\n        string memory _productBrand,\r\n        uint _productPrice\r\n    ) public {\r\n        products[_productSerial] = Product({\r\n            manufacturerId: _manufacturerId,\r\n            productSerial: _productSerial,\r\n            productName: _productName,\r\n            productBrand: _productBrand,\r\n            productPrice: _productPrice,\r\n            isVerified: false\r\n        });\r\n        productCount++;\r\n    }\r\n\r\n    // Add seller by manufacturer\r\n    function addSeller(\r\n        string memory _sellerName,\r\n        string memory _sellerBrand,\r\n        uint _sellerCode,\r\n        uint _phoneNumber,\r\n        uint _manufacturerId,\r\n        string memory _sellerAddress\r\n    ) public {\r\n        sellers[_sellerCode] = Seller({\r\n            sellerName: _sellerName,\r\n            sellerBrand: _sellerBrand,\r\n            sellerCode: _sellerCode,\r\n            phoneNumber: _phoneNumber,\r\n            manufacturerId: _manufacturerId,\r\n            sellerAddress: _sellerAddress\r\n        });\r\n        sellerCount++;\r\n    }\r\n\r\n    // Sell to consumer by seller\r\n    function sellToConsumer(uint _productSerial, uint _consumerCode) public {\r\n        require(products[_productSerial].isVerified, \"Product not verified\");\r\n        require(_consumerCode != 0, \"Invalid consumer code\");\r\n\r\n        transactions[transactionCount] = Transaction({\r\n            productSerial: _productSerial,\r\n            consumerCode: _consumerCode,\r\n            isSold: true\r\n        });\r\n        transactionCount++;\r\n    }\r\n\r\n    // Verify product by consumer\r\n    function verifyProduct(uint _productSerial, uint _consumerCode) public view returns (string memory) {\r\n        require(_consumerCode != 0, \"Invalid consumer code\");\r\n\r\n        if (products[_productSerial].isVerified) {\r\n            return \"Product is real\";\r\n        } else {\r\n            return \"Product is fake\";\r\n        }\r\n    }\r\n}\r\n\r\n",
    "sourcePath": "C:\\Users\\mhsia\\Downloads\\Thesis_Project-main (4)\\contracts\\SupplyChain.sol",
    "compiler": {
        "name": "solc",
        "version": "0.8.18+commit.87f61d96.Emscripten.clang"
    },
    "schemaVersion": "3.4.16",
    "updatedAt": "2024-01-12T23:41:40.029Z",
    "networkType": "ethereum",
    "devdoc": {
        "kind": "dev",
        "methods": {},
        "version": 1
    },
    "userdoc": {
        "kind": "user",
        "methods": {},
        "version": 1
    }
}